:10000000004500201DDE0100BF4D0000135200001E
:10001000A70A0001000100000000008000000000AD
:10002000C335E1AC0000000000000000000000004B
:1000300000000000000000000000000000000000C0
:1000400000000000206D73B10000000000000000FF
:1000500000000000FFFFFFFF0000000000000000A4
:100060000000000000000000000000000000000090
:100070000000000000000000000000000000000080
:100080000000000000000000000000000000000070
:100090000000000000000000000000000000000060
:1000A0000000000000000000000000000000000050
:1000B0000000000000000000000000000000000040
:1000C0000000000000000000000000000000000030
:1000D0000000000000000000000000000000000020
:1000E0000000000000000000000000000000000010
:1000F0000000000000000000000000000000000000
:10010000004500201DDE0100BF4D0000135200001D
:10011000E35200005B5300000B5C00000000000095
:10012000000000000000000000000000CF5C0000A4
:10013000A368000000000000E77F0000AB82000021
:10014000777E010089AD01008B9100003F9B00008C
:10015000BDA90100C9AD01008FAD010091AD010045
:100160008BAD0100EFA50000D7DC000013DD00001F
:100170000BDE0000330A0100AB29010063520100CD
:10018000CF610100FB640100876D0100CF710100A8
:10019000DB7B0100D7810100C39601008F9901002C
:1001A000A7D00100C7D00100EFD50100A3DC0100FA
:1001B000CBAD01008DAD010037DE0100FFAD0100C8
:1001C00039DE010063D001003BDE01003DDE0100AD
:1001D0003FDE010041DE010043DE010045DE01009B
:1001E00047DE010049DE01004BDE01004DDE01006B
:1001F0004FDE010051DE010053DE010055DE01003B
:1002000057DE010059DE0100000000000000000080
:1002100000000000000000000000000000000000DE
:1002200000000000000000000000000000000000CE
:1002300000000000000000000000000000000000BE
:1002400000000000000000000000000000000000AE
:10025000000000000000000000000000000000009E
:10026000000000000000000000000000000000008E
:10027000000000000000000000000000000000007E
:10028000000000000000000000000000000000006E
:10029000000000000000000000000000000000005E
:1002A000000000000000000000000000000000004E
:1002B000000000000000000000000000000000003E
:1002C000000000000000000000000000000000002E
:1002D000000000000000000000000000000000001E
:1002E000000000000000000000000000000000000E
:1002F00000000000000000000000000000000000FE
:100300000298780302987E030298BA0602980402C3
:10031000029896030298A4030298960302981A047E
:1003200002982E05029854050298F20502980006DC
:10033000029872060298A4060763076390B963796E
:1003400001DB067102981403076300B902EC00CDCB
:10035000114502EC00CC411103B804D91E720731DB
:10036000911210DA087102DD12721E7002B8076075
:100370000698D0103038127208B80698620F00C084
:1003800024000840207800F802EC00CA05B823DAFF
:10039000EA7202EC00C8911110D91A7100C1041F51
:1003A0000021141111500E713111076908D906721C
:1003B0000AB8C87007689111173111402111C03176
:1003C0001140011990B8411108D90471627820D9FF
:1003D00004726578273123DD0872C0DA0471607811
:1003E00003B8411107310872A11520358E7102DD65
:1003F0001672A11120D98471CCDA807206B8054D2D
:10040000B2720298140321114049C0D93471A0314D
:100410004115403501655141036108DA167204DA6D
:100420002072104901340C71076B80DB147190B895
:10043000677800C00D0F0C0D0698D21001D8087215
:1004400007B802987A00CC32204A00C0051708503D
:100450000698D210113001420DDA6671208800C171
:10046000DE1B250120BB04DA107208DA0A7200C113
:1004700020841000F823E8233114056B01DA06719B
:100480001E49024B076B076B00C0541F0021381038
:10049000BC2002DA127100B9FF21A11380DB0871C0
:1004A00000C100FCFF01181002989C0200C3FC1E52
:1004B0000021341080D84671EFBA0698900E009251
:1004C0000362DDDA9472A11101D9327100C23810D1
:1004D000084024120423281302EC00C804D9167122
:1004E00004BA183008710060FD20012A02EC00C82F
:1004F000FF22FA7604DC067218B8737890B8437855
:10050000029814030698E20800B8011A91101730F7
:10051000011900C2020200000698660704D906719C
:1005200001B802A800C0FC1E0021041380DB067184
:100530000298380001DB5C7100C25C1F00212411AD
:100540001114FF3402EC00C8FF24FA760761069804
:10055000E010036111380361111401114110069874
:10056000E01001D8087203B802987A00042202DB76
:1005700016712410112811280698F41000C21800D2
:100580000840FF200812411007600698E01001D8CB
:10059000087120BC10DB06720298140300BB00C176
:1005A000541F00211415511207620762C021112C3B
:1005B000FF320E7140885114069844034143009461
:1005C00041115112076AFF320E71511407640698E7
:1005D0004403076C414300C1581F00211410013B24
:1005E000B8211411111231100F30127100BA0461C8
:1005F00001D80471114200600FD8F4723110066006
:100600001E30047201B8003A087204B802987A00E9
:100610000298AC0100C0641F002104110F3103DDFA
:100620001A7200C000600840041007D80E7200C0A3
:100630001040084004B9181000F806988E0E00B853
:10064000477800F830885088FF34087102ECFF24A6
:10065000F87002EC00CD141001BB5150FFD80471AA
:1006600031440760006B10DBF2710421FF22E47259
:100670000F4C0095009300A00698E20800F8069839
:10068000E20800C5981F002154150698860A00C587
:100690009C1F002100F80698E2080698C20C0698F4
:1006A000080C00F80698E20810B902BA0698680724
:1006B00000C59C1F002100F89112033288B903DEA7
:1006C00040727179A11020D808710698860A5C7072
:1006D00000C3FC1E0021341380DB1A7100C3A81074
:1006E0000840A1141034024C481300BC4813911464
:1006F000076448138CBB627B40D80671517900BAFD
:10070000076A00C0A000084006980E04042008787C
:10071000097804112141181000A00698E20800BDD4
:1007200006983A0A10B903DC047100B902BA0698B7
:10073000680704D9067100404072811008D8107112
:1007400006983A0A03DC08720698B20726700698E3
:10075000FA04FFD80C7288B8477800B8447844701F
:10076000911010D80E7100BB00C46C500840069860
:100770009A0720B802A800F800C0FC1E002104134C
:1007800020DB2071911010D80E710760FFD808721D
:100790008CB84478967008DB9272A11328DB8C72B7
:1007A00003BD0698EE040698C20C00C5A01F0021E8
:1007B00006983A0A00BA03DC2A72042500C00C51DC
:1007C00008400698AC08211400C01400084004102A
:1007D0000268042334111128F823341106980C11EF
:1007E000412A5415212D0698EC0A0298760F911093
:1007F000015503355150011900A001B8811180D96C
:100800002C7100C10C500840141004302072642177
:100810001412EC211410014A076203608030215049
:100820008C480A717F2155211410013000A00698D0
:10083000E2080698C20C00BD0698EE0488B8477816
:1008400000B8447800C5A81F002154150698EC0A8A
:100850000298760F0698E20800C4BC1F00214414D9
:100860001DB3315B302C20750698900800C06000E5
:1008700008400410016801D80E7100C064000840EF
:10088000237808B865780698FA04FFD8067208B885
:10089000607800C2000002020698660700F800B9FE
:1008A00000C09C10084018101C200AB9181000C283
:1008B000600008402410911188BB0D302C71082273
:1008C0000812FC2204D9147204D804716A7B08D877
:1008D00004716C7B2F7A487B107004D804716D7B97
:1008E00008D804716F7B217A507B517B8CB8427899
:1008F00000A00698E20806989E050698080C00F8E5
:100900000698E20806983A0A07DC0A7200C59C1F9E
:10091000002100F80698080C01B9911004D8047160
:1009200000B900C20000020006986807004020716C
:1009300000C0FC1E0021041120D91471076101D9E7
:10094000E0728110076001D8D8728CB8647806987C
:100950009E0500C5AC1F0021541500C01C51084065
:100960000698AC08212D0698860A00C5B01F002104
:1009700000F80698E208811108D90C710698B207B0
:1009800020B802A800F806989E0500BD0698EE045F
:1009900088B8477800B8447800C5B41F00215415C2
:1009A0000298760F0698E208069886100698C20C00
:1009B0000698080C06989E0500F8B110076001D84B
:1009C0000A7108B87F78020C7E780698E20801F870
:1009D000911010D846710698440D0698660D069839
:1009E0001E0E00C51C510840541100C5305008406F
:1009F0005412E82554151159112D06760122212D86
:100A000000C1081F00211411112DD07518B8757878
:100A10008CB8447801B802A800F8B110076810D863
:100A2000307100C04810084000C300000840311475
:100A30006024282444113411076101D9FA71441249
:100A40002810076228100762281007622810E87033
:100A50000298EA0C88BA727A811204DAFC7200A059
:100A600088BA527A00A00C700698560A113804729F
:100A7000076A00BB00C10C1F002100C440510840A0
:100A8000141120391672417B007C00C46C50084060
:100A900000C200000101281400A00698540700C2FB
:100AA000FC1E0021241240DA0672617B007C029851
:100AB000600788B86B7800C0640008402F7800A0F9
:100AC000B11001D8047200A000C0287008400411C1
:100AD000108800C10018004018104420041110882C
:100AE000A820041110884CBA757A18103DB11088EE
:100AF000F4B8427844207278D8207378E82073786C
:100B00004FB200C4FFFF8080413A4FAA01BC01648C
:100B10004113076300C06C70084003B9181001103E
:100B2000011001B9181001100110011001109820D6
:100B30000411076101B80160003A0471044904D945
:100B4000047241520760003A0471084908D90472DE
:100B500031520460003B0E72006300643142414236
:100B60004FAAB2704FAA44B801685378F8B85378C6
:100B70004020527800913DA9009100C014700840B7
:100B800018100091582018100091BC20181000A0D7
:100B90004024066400C0FFFF0000013C1DB002209D
:100BA0000158402806751EAC01EC00A000C2185088
:100BB000084024111DB4111324113051F871066C32
:100BC000402404100158112800C3901F0021341143
:100BD00006980C1100B88020013A0662215A412A79
:100BE00000A0009000C6C01F0021008801B0076867
:100BF0000F305CB111130F330111C0480698400A41
:100C00000698600700C46C1F002103DD167214BA39
:100C1000281400C200010840317A9C22CC22207A9C
:100C200000A009DDEE7100BA03DF1E71004B0672F1
:100C30002814311953B080BB006B30380A7109DDBC
:100C400006710298A60E00A04413281441150698B8
:100C5000560A0060B83000C4E01008404412076231
:100C6000013221400824287CF8255412F03240DE5D
:100C70000472404804DB08720DDD0C72044BEF3047
:100C80001448069812090088811140D91E72B112C9
:100C90003032CF4A2138B1D8127208D8067104D840
:100CA0000A719C24D424237C347098244412FF328B
:100CB000C322047580B8D82481D8247140D9047225
:100CC000237C084B04BA80DC067180D8367206B9E2
:100CD00004A901D82E7264242824307C4A7008D8D4
:100CE0000C7107BA24D8047106BA187004D80C71B4
:100CF00001BA40D80E7102BA0A7005BA20D804723F
:100D000003BAE02444114024181407611814911107
:100D10003031114200C100600840141110D9047133
:100D2000404A281408140090308802480698B20EF1
:100D3000009308DB047100F800A05CB00F3000A045
:100D40001088B111076980D90A7100C1800008407C
:100D50000811009100A000C400010840441000A048
:100D600000C020300E40041104101050F47200A096
:100D700000C028400E400413315107610C3107694F
:100D80001153381000A006981C0C217A227A00C05A
:100D9000881F00211DB1181000BB0698160BA4BBBC
:100DA00000C040300E400411033101492872B112D5
:100DB000076207623020041121510F3118726E7BD7
:100DC0006F7BF02004114CBA7C7A181014200411A7
:100DD000607A1810B11002D81071707B30B8627848
:100DE00060780DB001D8FC7102984E0C06981C0C6E
:100DF00000C0F41F002104110698700A217A237A9A
:100E000000C3000010000698160B00C0781F0021D8
:100E10001DB1181000A0511400C0B81F002104100B
:100E2000012C0A7500B826A80698900800C0741F07
:100E300000211DB1181028B010B9115911380EB980
:100E4000114028A880B800C144300840081100C1F2
:100E5000F01F00211410303B06710760076000C4CA
:100E60000830084044111150FF30015118146FB878
:100E7000076826A8217A050C21102020267800C0BA
:100E800063EF0000314026A8050C20EC247A20EC0A
:100E9000217A184826A828B00AB901510F311150FB
:100EA00028A8050C207A20EC0F0C98B846784178D9
:100EB000B11080D83E7100C04C30084000C16D01B7
:100EC000000018100D0E0D0E00C070300840041107
:100ED00030311271082025782478960CF8200411FE
:100EE0003031F272DC2000C106000000181000B999
:100EF00018100698600A00C2701F002124100151CA
:100F0000FF311150081200A006981C0C00B826A84A
:100F100000C07C1F00211DB1181000A030B840781F
:100F20000DB101D9FC72427800C074300E4004113A
:100F30004CBA407A1810EC2004115C7A1810A4BB4B
:100F4000707B4E7B4F7B00C20430084000A008B885
:100F50006E780EB84EB110D90C723EA8140C0FB8B2
:100F60003EA8107044A8140C01B800C1B0300E4067
:100F7000081100C077801F003DB201423DAA00C0A9
:100F8000FFFFFFFC013A3DAA140C00C077E01F00F0
:100F900001423DAA51B801687D7808B87E7806986C
:100FA00054070698C00706986007511406989008E1
:100FB000F4B845780A0C00C0841F00211DB1181038
:100FC00000A051B801685D7800C00000000344A88B
:100FD0003EA800C1B0300E40081110B807683DB1FE
:100FE00001393DA908B86F7800A001F8541000DC61
:100FF000127101140698900818B8707800B84178FA
:1010000000F80298060D0698440D008800C5701F70
:10101000002154155112FF350762FF320698600A0D
:10102000015951290475115900902129127506980A
:10103000660D06981E0E03D80472FF0FCE7018B806
:10104000727800F800C0F41F0021041001D8167156
:1010500050BD06987C0E00C3086208402C7B287B9C
:1010600000BB1DB400A001D8047200A0069890082F
:101070001DB42824408800C004700840041080205B
:10108000FF3006720298180E00DF06720113167008
:101090003111016B1159112B016300C1FF070000D1
:1010A000113B012B00C0880100000158312808764F
:1010B00005B878BD2870F820087605B8C8BD1E7040
:1010C000DCBDDC20067606B81470E020067607B892
:1010D0000C70E820067608B8047009B800C10062F8
:1010E00008401412076201DA187110DA08720698C3
:1010F0007C0E267008212C79287950BD06987C0E2C
:101100000768036800C12C60084000C2FF0FFFFFA2
:101110001414213C0144481101B8009400A002D8E5
:10112000047200A0069890081DB42824408800C0CE
:10113000047008400410FF3080DC3C7106982E11CA
:10114000015900C2EC1F0021241550452A71541288
:10115000211006982E1111280A75042554155045A2
:10116000EE7200C01C6008447FB906611810113A85
:1011700048B97979281002B8009400A000C47860BA
:10118000084044122155FF355152281400A0EBBAF3
:1011900000C06C1F00210411113A10D9067118B952
:1011A0007479281000A00698861011510698700ACC
:1011B00000B8B111076940D906720298600F00BCEF
:1011C00008D94071202400C160600840111200DC81
:1011D0000C71A022241210DA10710C70BC2224129F
:1011E000076204DA04710421141200C1800008406F
:1011F000320C281107622811076228110762281192
:101200004B0C00C1641F0021141200DC1C7120D89B
:10121000087101B806986A0FF0DA0C720CDB0871DD
:1012200002B806986A0F482400C380000840FFB83F
:1012300001200421141111410871014118130824DF
:10124000014200C1383008401411014100C0006063
:101250000840041030300168014118132813481366
:1012600000B800C1641F0021141203682150F0303F
:101270000152281100A064BC066C415C512C0698F8
:10128000900850880698B8030095B110076820D8D8
:10129000207108B86578911004D808720698B207D2
:1012A00000F888B86E7800C064000840217800F823
:1012B00008B86C7820B85A7859785B7800C0F44048
:1012C00008407878797800C0E81F0021041040A811
:1012D00046A84EB010D8067102981E104DB100C03D
:1012E0009FFFFFFF113840B102D90A72604804BB6A
:1012F00041540870204802BB02BC4DA8F8B8707871
:10130000190C3EB141413EA9F4B9737973787178F3
:1013100000C4F840084000C200410840227000C2EA
:101320000000010044AA230C00C200000B0044AAE4
:1013300000C41041084000C21841084004BB587C5A
:10134000050C597C0C240F0C2FAB050CB11008D8E0
:101350001471647A657A1CB879787B7820B87978CA
:101360007B78607CF4244113511406989008727BBA
:1013700053B80168050C687840EC00C0801F00215C
:101380001DB1181000F8015053A800C0B860084003
:1013900004110761076180D9047240EC00C4F84071
:1013A00008404EB010D80471182441130C23527C0D
:1013B000407B01502FA8050C797C0A0C00C000006E
:1013C00001020814787C050C507C08B86D7800A0E8
:1013D000115910D906710760076008D904710760B8
:1013E00004D90471036002D90471016001D9047148
:1013F000006000A0108804110230067107610761C7
:1014000000C0FFFF00001138009100A000C2FFFFE4
:1014100000002138213900BA01D806710148112A8B
:101420000069006001D8F6720138F67200A08020D1
:10143000FF30FF48812000A0002801280328001861
:10144000002A012A0A18292A0118052A022900005F
:10145000F01921B4478FA4BFA14F63FDEED6141D30
:10146000636032E0375EA488534E6DFB6435BFF78E
:1014700053A1811F582CD0A54540FC34F327429836
:101480009F3EE22E0ECFFFBF1E45CA8C68234A4FF7
:1014900016531EC44CBAAD9D324B6808CF7BC04C6E
:1014A0000C0053696C69636F6E204C6162730000BD
:1014B0000500021500292A0002000A180200000097
:1014C0000500021200012A000300000000000000D5
:1014D0000500021000002A000200001801000000B0
:1014E0001300020D0016531EC44CBAAD9D324B685A
:1014F00008CF7BC04C000000080000000000000086
:10150000000000001300020B009F3EE22E0ECFFFF2
:10151000BF1E45CA8C68234A4F0000000C02000021
:101520000000000013000C090053A1811F582CD0AB
:10153000A54540FC34F32742980000000801000054
:10154000000000001300080700636032E0375EA46B
:1015500088534E6DFB6435BFF70000001000F01992
:1015600021B4478FA4BFA14F63FDEED6141D000028
:1015700020000400DC1200200500200300052A00E2
:101580000200011800000108FFFF000080150000A4
:1015900002000108FFFF00007815000009000008A4
:1015A000FFFF0001701500000A000708FFFF00039D
:1015B0000200000000000108FFFF00005C150000B1
:1015C00002000108FFFF000044150000018002082E
:1015D000FFFF00073C15000002000108FFFF0000AC
:1015E0002415000002800608FFFF00071C150000FC
:1015F00002000108FFFF000004150000038001083D
:10160000FFFF0000F814000002000108FFFF0000C7
:10161000E014000004800108FFFF0000DC1400005B
:1016200000000108FFFF0000D814000002000108BC
:10163000FFFF0000D014000004000108FFFF0000BD
:10164000C814000002000108FFFF0000C0140000E1
:1016500005000108FFFF0000BC14000000000108A5
:10166000FFFF0000B814000002000108FFFF0000A7
:10167000B014000007000108FFFF0000A0140000E4
:101680000300070009000000002801280328FFFFCD
:101690000018002A012A0000F01921B4478FA4BFC6
:1016A000A14F63FDEED6141DD1A0835000AAD387AD
:1016B000174859A75DE904E6915276BB26000080E1
:1016C00000100000A50000009A9396D7BD6AD9B516
:1016D0001646D281FEF046DC636032E0375EA488B5
:1016E000534E6DFB6435BFF753A1811F582CD0A515
:1016F0004540FC34F32742989F3EE22E0ECFFFBFB9
:101700001E45CA8C68234A4F16531EC44CBAAD9D61
:10171000324B6808CF7BC04C02000000050002225B
:1017200000012A0003000000000000000500022064
:1017300000002A00020000180015010050130020CC
:10174000001401005113002002130200480300207E
:101750000A1200000000000013000A1A0016531EAF
:10176000C44CBAAD9D324B6808CF7BC04C00000022
:10177000001101005213002000100100531300203B
:10178000020F02004A0300200A0E000000000000C1
:1017900013000A15009F3EE22E0ECFFFBF1E45CA62
:1017A0008C68234A4F000000000D010054130020F4
:1017B000000C010055130020020B02004C03002016
:1017C0000A0A00000000000013000A100053A18163
:1017D0001F582CD0A54540FC34F327429800000048
:1017E00000090100561300200008010057130020D3
:1017F000020702004E0300200A060000000000005D
:1018000013000A0B00636032E0375EA488534E6D0C
:10181000FB6435BFF70000000005010058130020ED
:101820000004010059130020000301005A13002096
:1018300002020200500300200A0100000000000024
:1018400013000A0500915276BB26000080001000AC
:1018500000A500000000000002000200520300206A
:101860001300020300D1A0835000AAD38717485960
:10187000A75DE904E60000001000F01921B4478FCD
:10188000A4BFA14F63FDEED6141D000000000108A7
:10189000FFFF00007818000002000108FFFF0000B1
:1018A0006018000001800108FFFF000158180000C7
:1018B00002000108FFFF000040180000028003083A
:1018C000FFFF00073818000003800108FFFF000138
:1018D0003018000003000000FFFF0001281800007E
:1018E00003000000FFFF00012018000003000000BB
:1018F000FFFF00011818000002000108FFFF0000B0
:101900000018000004800308FFFF0007F81700001C
:1019100003800108FFFF0001F01700000300000032
:10192000FFFF0001E817000003000000FFFF0001B7
:10193000E017000002000108FFFF0000C8170000C8
:1019400005800308FFFF0007C0170000038001089F
:10195000FFFF0001B817000003000000FFFF0001B7
:10196000B017000003000000FFFF0001A8170000EF
:1019700002000108FFFF0000901700000680030826
:10198000FFFF00078817000003800108FFFF000128
:101990008017000003000000FFFF0001781700001F
:1019A00003000000FFFF00017017000002000108A3
:1019B000FFFF00005817000007800308FFFF000723
:1019C0005017000003800108FFFF000148170000C6
:1019D00003000000FFFF00014017000003000000AB
:1019E000FFFF00013817000000000108FFFF0000A2
:1019F0003417000002000108FFFF00002C17000050
:101A000005000108FFFF0000241700000200010884
:101A1000FFFF00001C17000006000108FFFF000088
:101A20001817000003000500060007000800090061
:101A30000B000C000D000E0010001100120013002E
:101A400015001600170018001A001B001C001D00CE
:101A500084150000150000000B0000003814000081
:101A60000500000050140000030000008016000074
:101A7000D4DF010000000000D5DF010000000000FD
:101A8000FFFFFFFF8C18000022000000070000008D
:101A900088160000080000009816000016000000DC
:101AA000241A0000D6DF010000000000D7DF01008B
:101AB00000000000FFFFFFFF010000000000000029
:101AC0000000000000000000000000000000000016
:101AD0000200000000000000000000000300000001
:101AE00000000000000000000000000003000000F3
:101AF00001000000000000000200000001000000E2
:101B0000020000000300000013B779FAC925DDB711
:101B1000ADF3CFE0F1B614B8000100000000000002
:101B200000000000080000000000060200000000A5
:101B300000000000000000000000000000000000A5
:101B400040787D0100000000005A620200010000A0
:101B5000C0CF6A0002000000809FD5000201000093
:101B6000406F40010202000000000000010002007E
:101B700015005400A9005301A7024F059F0A000059
:101B8000FC00D80A066CFBFF9D00370518E2FEFF3B
:101B900075000403F5E3FFFF4900B9019D43000010
:101BA00035005701F85700001600D10058570000C3
:101BB0000E007C00D049000008004B0028390000CE
:101BC000F8006C0B78DEFAFF9F00F1044EEAFEFF8E
:101BD0007500DF0248DEFFFF4C00C3018D330000BB
:101BE00024001901E44B00001300AC00904A0000EF
:101BF0000C006C00B13F00000700430046320000BB
:101C0000C800FCFEC01B0000C800FCFE801B0000DA
:101C100083FFBFFFE2FFF1FFF9FFFEFF00000000BE
:101C2000FFFF000000000000FC00D2104C06FAFF8D
:101C300081009B05F132FFFF500062020B3500006E
:101C400026004B01885F00001800E0005E5D000088
:101C50000E008C006A4F000008005100F73C0000A5
:101C6000F8006D23441FEEFFF800F20E8E37FAFFE6
:101C70007B00A40324A7FFFF4E00D601AD34000073
:101C800025003001004D00001300C000CA4A0000CA
:101C90000B006E00F73C0000060038008A2B0000A5
:101CA0009600FCFE601C00008C00FCFE201C000066
:101CB00083FFBFFFE2FFF1FFF9FFFEFF000000001E
:101CC000010000000400000001000000040000000A
:101CD000F4010000FA00000096000000640000001B
:101CE0004B000000320000001E0000001400000045
:101CF0000000000001010000010100003C00940010
:101D00003C0096000000000013001D0012001000AF
:101D1000150000004F620000AB620000B7620000D7
:101D2000000000000000000000280000000000008B
:101D30000200000000000000002800000000000079
:101D4000100000006C888391AAF5A53860370BDB82
:101D50005A6083BE3F49F6D4A3C55F3874C9B3E364
:101D6000D2103F504AFF607BEB40B7995899B8A614
:101D7000CD3C1ABDE69D350E480103CCDBFDF4AC2D
:101D80001191F4EFB9A5F9E9A7832C5E2CBE97F267
:101D9000D203B0208BD28915D08E1C742430ED8FE5
:101DA000C24563765C15525ABF9A32636DEB2A6561
:101DB000499C80DC000000000000000001000000E1
:101DC0000000000001000000000000000000000012
:101DD00001000000000000000100000002000000FF
:101DE00002000000030000000000000002000000EC
:101DF00000000000000000000000000000000000E3
:101E000000000000020000000200000001000000CD
:101E100000000000020000000000000000000000C0
:101E200001000000000000000100000000000000B0
:101E30000500000001000000000000000500000097
:101E4000020000000200000003000000000000008B
:101E50000200000000000000000000000000000080
:101E6000000000000000000002000000050000006B
:101E7000010000000000000005000000010000005B
:101E80000000000004000000010000000800000045
:101E9000010000001000000001000000000100002F
:101EA00001000000000800001D000000000200000A
:101EB0001D000000000400001D00000000000100E3
:101EC0001D00000000000000BD9C000094110000F7
:101ED00000002800000000000000000000000000DA
:101EE00000000000809C2B8F80841E0000002500D5
:101EF0002500B4003001002000000000809C2B8FE2
:101F000080841E0000002600260099003001002079
:101F100000000000809C2B8F80841E0000000000C9
:101F200024002C013001002000000000809C2B8F39
:101F300080841E000000270027002C0130010020B3
:101F40006C2100003C230000E01E000004000000A3
:101F5000F0550000B20C0000000028000000000056
:101F6000000000000000000000000000809C2B8F9B
:101F700080841E00000023002300B60034010020EE
:101F800000000000809C2B8F80841E000000240035
:101F900024009D003401002000000000809C2B8F55
:101FA00080841E000000250025007D0034010020F3
:101FB00000000000809C2B8F80841E000000260003
:101FC000260053003401002000000000809C2B8F6D
:101FD00080841E000000000022002C01340100203B
:101FE00000000000809C2B8F80841E0000002700D2
:101FF00027002C01340100204023000010250000A0
:10200000681F000006000000000103FF04FF02003B
:1020100007000000020000000400000000000000B3
:102020000400000000000000050000005000400017
:1020300028000200000850002400180000000004DE
:1020400000000F400000000000040F4001000000ED
:10205000FFFFFFFFFFFFFFFFFFFFFFFF000000008C
:10206000000000000000000001000000FFFFFFFF73
:102070004B60D2273E3CCE3BF6B053CCB0061D653C
:10208000BC86987655BDEBB3E7933AAAD835C65AC5
:1020900096C298D84539A1F4A033EB2D817D037702
:1020A000F240A463E5E6BCF847422CE1F2D1176B9D
:1020B000F551BF376840B6CBCE5E316B5733CE2B70
:1020C000169E0F7C4AEBE78E9B7F1AFEE242E34F9F
:1020D000512563FCC2CAB9F3849E17A7ADFAE6BCCA
:1020E000FFFFFFFFFFFFFFFF00000000FFFFFFFFFC
:1020F0000000000000000000000008400000002177
:10210000000001020203030303000000183F010660
:10211000041001000001010600102700000C00005F
:102120000000000000000000183F0106041001003C
:102130000001010600102700000C00000000000054
:1021400000000000010000001CC77100000000003A
:102150000C210000C81E000001000000388EE300C2
:102160000000000028210000501F0000F01F0301A4
:102170003F0037000000000044210000040002007E
:1021800001810100000100001800020000000000B1
:10219000010000002800070000000000000000000F
:1021A000000000000000000000000000000000002F
:1021B000A0070000480001000000000054000200D9
:1021C0000000000000000000A00004000148000022
:1021D000FF4C000001490000FF4D000000200100FD
:1021E0000807000010200100AAAAAA001820010078
:1021F0000060DA000830010013AC0001303002004A
:10220000E338100001000000403001000000000031
:10221000A04001007A27000FB840010000C08300F1
:10222000F44001002010000034410200800800004A
:10223000E6870000404102006D008800C0E6524D74
:1022400060410400000000000000000006000000E3
:10225000060000001460080010000000000000C626
:102260001FC00100C85000000080000000000003F3
:10227000000000000000000050600600180005008B
:10228000410C000008000000910004002941767113
:102290000000000078600C008C000C0000000000C2
:1022A00014001A00000000000000000001040B19D7
:1022B0002C404C59605B534736251B114AF3389626
:1022C0006745231211090000E46007008F0846CB20
:1022D0000000000023086404D007CB4891200600CA
:1022E000F9541C008294EA870461030051551100DF
:1022F000B01B000089BB000020610100FFDF00006F
:1023000014700600F8700200000300006000A5834E
:102310000000000082000000000080014870020000
:102320003C3D0000BC190000707003000541000036
:102330000F9C030006E04900FFFFFFFFFFFFFFFFC8
:10234000F01F03013F00370000000000582100008B
:1023500004000200018101000001000018000200D9
:10236000000000000100000028000700000000003D
:10237000000000000000000000000000000000005D
:1023800000000000A007000048000100000000005D
:10239000540002000000000000000000A000040043
:1023A00001480000FF4C000001490000FF4D000003
:1023B000002001000807000010200100AAAAAA00BE
:1023C000182001000060DA000830010013AC0001A1
:1023D00030300200114910000100000040300100BF
:1023E00000000000A04001007A27000FB840010063
:1023F00000C0E300F440010020100000344102005E
:1024000080080000E687000040410200EA008800E2
:10241000C0E6524D604104000000000000000000D2
:102420000600000006000000146008001000000014
:10243000000000C61FC00000C850000000D03200DD
:1024400000000003000000000000000050600600D3
:10245000FC006900410C00000000000011000800B1
:10246000294176710000000078600C00080400002B
:1024700000000000BE031A00000000000000000081
:1024800001040C1A2F46536168625849352014071D
:10249000C491A0635644332322529224E46007007F
:1024A0008108A1CB00000000198407059411CB48D6
:1024B00099200600016120008294EA8704610300EC
:1024C00065B611001E37000089BB000020610100C5
:1024D000FFDF000014700600F87202000003000025
:1024E00060002784000000008200000000008001DE
:1024F000487002003C3D0000BC19000070700300F1
:10250000C30000000F9C030006E04900FFFFFFFF2F
:10251000FFFFFFFF4145532D3132382D4543420027
:102520004145532D3139322D454342004145532D0C
:102530003235362D454342004145532D3132382D39
:10254000435452004145532D3139322D43545200EA
:102550004145532D3235362D4354520002000000C0
:10256000ADDE0100B1DE0100CDDE0100C9DE0100FB
:10257000D1DE0100EBDE01000200000001000000DE
:102580008000000014250000100000000000000082
:10259000100000005C2500000300000001000000A6
:1025A000C000000020250000100000000000000016
:1025B000100000005C250000040000000100000085
:1025C000000100002C2500001000000000000000A9
:1025D000100000005C2500000B000000050000005A
:1025E00080000000382500001000000000000000FE
:1025F000100000005C2500000C0000000500000039
:10260000C000000044250000100000000000000091
:10261000100000005C2500000D0000000500000017
:102620000001000050250000100000000000000024
:10263000100000005C25000002000000782500006A
:10264000030000009825000004000000B8250000E9
:102650000B000000D82500000C000000F825000049
:102660000D0000001826000000000000000000001F
:102670004E040000000000000100000008070F00E9
:102680000A00C80020000000A000000001000000B7
:1026900000000000A00068010A200706020A0407E3
:1026A0000000000001000000050000000000000024
:1026B0000000000000000000000000000800020010
:1026C00006000000A90A000001000200636032E079
:1026D000375EA488534E6DFB6435BFF753A1811F4D
:1026E000582CD0A54540FC34F3274298B814B6F1D5
:1026F000E0CFF3ADB7DD25C9FA79B7134FF000513C
:102700000860BFF34F8F0548054A016801F4E06196
:1027100011430160BFF34F8F00BFFDE70CED00E0F8
:102720000400FA054FF00050006870474FF0005168
:102730000860704780B500B30FF251011E2000F011
:1027400069F80121294800F07FF9294800F02DFEA1
:1027500028484FF0FF31416340F2FF71016041684A
:10276000C90AC9024160416841F0010141604FF06E
:10277000804021490860214908600120204900F07B
:10278000FDFD20490020086001BD00001E480168D1
:10279000CA0703D51B4A13685B1C13604A0703D59D
:1027A000C26822F00402C260816070471749086362
:1027B000086840F0040008607047154800687047DA
:1027C0001248016841F001010160704710B50D49E0
:1027D0000A680F4B1B680C68A242F9D1510441EA08
:1027E000D3310160C3F30E01818010BD8009120056
:1027F000B81A00002020044080E200E000E100E080
:10280000D01A00000C0500201820044024200440A9
:102810000820044041F0010100F07FBE00B51F48D0
:1028200083B0006800F16041B1F5003F07D300219B
:102830000191009143231A4A432100F074FE194983
:10284000002000F06AFE1849012000F066FE1749DA
:10285000042000F062FE1649052000F05EFE1549D6
:10286000062000F05AFE1449072000F056FE1349D6
:10287000082000F052FE12491A2000F04EFE1149C5
:102880001C2000F04AFE10491D2000F046FE03B057
:102890005DF804EB0D491F2000F03FBE08ED00E09D
:1028A00000040020777E010089AD0100BDA9010070
:1028B000C9AD01008FAD010091AD01008BAD0100EC
:1028C000EFD50100CBAD01008DAD0100FFAD0100E2
:1028D000890001EB401000F18440026070478900DC
:1028E00001EB401000F184400068704710B5DFF83C
:1028F000BC4712212046FFF7F2FF0028F9D12068DB
:10290000C0F3014010BD0122DFF81C1610B588424B
:1029100032BF0022DFF81416884201D2144600E0CC
:1029200002241021DFF80806FFF7D2FFDFF8940732
:10293000016821F0807141EA0461016010BD70B549
:10294000DFF8F025D36B03B1012341F67134D46372
:10295000DFF874571468002405EBC40636798E42FC
:1029600003D155F83460864202D2641C052CF3D39F
:10297000052C0EBF032005EBC4004079116821F03F
:10298000407141EA00601060DBB20BB10020D063FF
:1029900070BD80B500F0FFFDBDE804400021CEE72A
:1029A000CDE7C01C0F2801D2000770474FF07040E0
:1029B0007047000038B50446002500F067F9DFF8DD
:1029C000F026DFF86416944208D0DFF8E826944237
:1029D00006D0DFF8E426944204D006E0086802E05E
:1029E000486800E0886800F00700401E03281BD8F4
:1029F000DFE800F002050C0800F0FEFD04E000F046
:102A000001FE01E000F0FBFD05460DE000F0B6FD23
:102A1000DFF8B0160968090E01F001010122491C16
:102A200002FA01F1B0FBF1F5284632BDDFF89C1641
:102A30004A68D20702D40A680242FCD1704780B5C6
:102A400000F0DCF8401C02BDF8B50446201200F08E
:102A50000F000026401E09280D46DFF8647814D8C0
:102A6000DFE800F0051C1413071E21132428DFF8EB
:102A7000C074C4F3043416B13046FFF7D7FF2A46BA
:102A800021463846BDE8F84022E7F1BDDFF874087A
:102A900000F013F8FFF737FF0837EAE71037E8E7E9
:102AA00030370126E5E738371026E2E740374FF4A4
:102AB0008036DEE7DFF87478DBE770B5DFF81016F4
:102AC000DFF8EC250E68DFF8EC15DFF8F845012596
:102AD00010F4781075D0B0F5003F30D0B0F5802FED
:102AE00027D0B0F5002F6CD0B0F5202F2DD0B0F549
:102AF000402F5ED0B0F5602F3FD0B0F5901F53D07F
:102B0000B0F5A01F2AD0B0F5B01F39D0B0F5D01F56
:102B100022D0B0F5E01F31D0B0F5001F44D0B0F5A1
:102B2000281F22D0B0F5301F31D0B0F5381F4BD060
:102B300061E000F032FDE168C1F308210AE000F035
:102B40002CFDA168C1F3082104E000F026FD6169B5
:102B5000C1F30421491C24E0104627E01046FFF78A
:102B600029FF216A01F00F0119E01046FFF722FF4B
:102B70000646206AC0F30110C6403DE0084615E055
:102B80000846FFF717FFA16AC1F3011107E00846E5
:102B9000FFF710FFA16A090A01F00301091D05FAF8
:102BA00001F1B0FBF1F627E0DFF80C05FFF702FFBB
:102BB0001FE0DFF87C0700F069F807281CD009281F
:102BC00019D100F0EAFC14E0DFF8680700F05EF8C5
:102BD00004280CD007280FD008280CD100F0DDFC09
:102BE0002168C1F30421491C01FB00F604E000F058
:102BF000EFFC064600E00026304670BD031103F0EE
:102C00000F0301215B1E082BDFF8B8243BD8DFE857
:102C100003F005070B0F1115243A3A00106800E085
:102C20005069C0F3042070471068C0F3006070471B
:102C3000D06800E09068C0F308207047DFF8F836ED
:102C4000984204D0DFF8F436984204D01BE0106AB2
:102C500000F00F0013E0106A09E0DFF8E436984254
:102C600004D0DFF8E036984204D00CE0906AC0F35C
:102C7000011004E0906A000A00F00300001D01FA50
:102C800000F0401E7047002070470000014601F030
:102C90000F010120491E0729DFF8AC2649D8DFE8DB
:102CA00001F0040F1348202E4836506A00F0070048
:102CB00002283AD002D3042804D01CD30520704740
:102CC00011690FE002207047516901F00701491EA8
:102CD00003292FD8DFE801F00F020311F2E70620E5
:102CE0007047916901F00701012904D00229E9D058
:102CF000042902D07047032070470A2070471168EA
:102D000011F001010FD0012914D109207047DFF81B
:102D10003C16096801F03001102904D0202904D0A4
:102D2000302904D0704707207047042070470820DE
:102D300070470020704700002DE9F84380460027C7
:102D40000325B8F1110F0C46A94612D1042C02D16B
:102D500000F03EFC08E0052C0BD1DFF8F405DFF8AD
:102D6000F4150068884204DB07001CBF002100F056
:102D7000CAFD08F00F00401E0728DFF8CC650ED80A
:102D8000DFE800F0043D438B406F8B79022C6648EE
:102D900006D0032C29D0042C2AD0052C2DD07CE081
:102DA00004254FF0000901220121484600F0A6F950
:102DB000FFF7EFFD37B11221DFF8F002FFF78FFDCB
:102DC0000028F8D1756000F07AF8FFF79CFD00F05C
:102DD000D5FB0446FFF78AFD01462046FFF7E0FDDC
:102DE000002F5AD1BDE8F443F3E04FF00109DAE7D0
:102DF0000225A946FFF787FDD5E70125FAE706F189
:102E0000100504E006F1180501E006F11405012C97
:102E100008D0022C09D0032C0ED0062C13D00A2C7B
:102E20001DD03AE00020286037E001220121002077
:102E300000F064F90220F6E701220121012000F0F0
:102E40005DF90120EFE700F099FBFFF75CFD01223F
:102E50000221DFF86C04FFF73BFD0320E3E70420C9
:102E6000E1E7072C02D0092C02D016E0002000E098
:102E70000120306011E0012C06D0042C16D0072C64
:102E80000DD0082C19D008E00020DFF8C0140A6823
:102E900022F0300242EA00100860BDE8F18301220E
:102EA0000121042000F02AF90120EEE7012201218E
:102EB000022000F023F90220E7E70320E5E7DFF82E
:102EC0004404FAE5834ADFF8981490421FBF824A0F
:102ED0009042824A904215D0814A904214D0814A51
:102EE000904213D0804A904212D0804A904211D032
:102EF0007F4A904210D07F4A90420FD07E4A904243
:102F00000ED00FE008687047C8687047886970473E
:102F1000C8697047086A7047886A7047C86A70470E
:102F2000086B7047002070470148E8010190D0030A
:102F300000400E4004000E4070B50446FFF7C2FF8B
:102F40000646DFF80C040568046000F0B8F80528B0
:102F500008BFFFF71EFD18215C48FFF7C0FC0028E2
:102F6000F9D15C498C4208D05B498C4207D05B495F
:102F70008C4208BF26F0C06604E0022000E0012079
:102F800060F35A6600F09BF8052804BF2046FFF75F
:102F9000BAFCA54203D20121204600F0B4FCDFF8C0
:102FA000B803066000F08BF8052808D100F0E6FAB7
:102FB0000646FFF79BFC01463046FFF7F1FCFFF7A2
:102FC0007EFFFFF7A0FCA54202D3BDE8704000E001
:102FD00070BD0121002000F096BC70B5DFF884437D
:102FE000236800F0804040F04055AB4309B14FF0FA
:102FF0008051150014BF4FF00055002501432943AF
:10300000002808BF002A41EA03050BD000F0E0FACF
:103010000646FFF76BFC01463046FFF7C1FC304621
:10302000FFF771FC256070BD80400E4070B500F068
:1030300045F801220021022000F060F82169DFF844
:10304000245300200229296808BF0120490840EACA
:1030500041002860082122782846FFF739FC68687B
:10306000E17AC00841EAC0006860617AA08841EA5C
:10307000C020A860EE68207AFFF793FCE28806F093
:103080007F6141EAC221A27A1143227A41EAC21148
:103090000843E860A17B607B090141EA0030E17BE5
:1030A0000843217B40EA0140286170BD04300E4096
:1030B00002001A0003001C00050020000446112035
:1030C000E4E5000000410E40401B000040410E407E
:1030D0003400002040420F0080841E0000093D00A3
:1030E000C0CF6A00405DC6000024F400C0EA2101A0
:1030F00080BA8C010048E80180D543022DE9F84FE1
:1031000004288046924672D8DFE800F04D483E031E
:10311000430001260220012700240029DFF808923D
:10312000904D5FD0B8F1020F04BF286810F0300F47
:103130004FF0000B0CD18C4800682868C0074FF096
:10314000010B05D5286820F0300040F00100286010
:10315000EE6300F04EF80028FBD0BAF1000F46D025
:10316000394600F047F80028FAD0B8F1020F3ED1F6
:10317000BBF1000F3BD02868C0071BD501222021DE
:10318000022000F0C1F819E00426082003270224D9
:10319000C3E71026202005270424BEE74026802010
:1031A00007270624B9E74FF480764FF4007009270B
:1031B0000824B2E70021022000F084F8022000F089
:1031C0001DF80446012200210220FFF797FF214647
:1031D000022000F02DF8EE63394600F00BF80028CD
:1031E000FAD004E0E86300F004F80028FBD1BDE861
:1031F000F18F21464846FFF772BB0000401E0328AE
:10320000554912D8DFE800F0020C06080869C0F33F
:1032100008007047086800E0886800F07F00704789
:1032200052480068C0F30A00704700207047000051
:1032300070B5401E0D46032805F07F01464C474EF1
:103240003DD8DFE800F0022A101DC5F308051A2159
:103250003046FFF744FB0028F9D12069400A45EACF
:103260004020206170BD0D4618213046FFF737FB26
:103270000028F9D12068C00945EAC010206070BD5F
:103280000D4619213046FFF72AFB0028F9D1A06826
:10329000C00945EAC010A06070BD2348006860699D
:1032A00020F0300040F010006061C5F3C310FFF75C
:1032B00078FB216A2E4A114029430843206270BDE1
:1032C000B0400E402748026812F0300F18BF0029A6
:1032D00007D0202902D0302903D005E04FF40001A7
:1032E00003E04FF4400100E02249C26E0A408A42E6
:1032F000FBD1490204D5C06F800A00F0010070477D
:10330000012070470025080010B5022809D121B11D
:10331000194B4FF480645C64196012B1BDE8104031
:10332000D0E7012010BD000090400E4050410E40FB
:1033300006000C0098002E006006140060162A009B
:103340007017160070272C0070400E405C410E4034
:1033500030000020012D310110400E4040410E4050
:103360003082E00F24400E403C300E409C400E4026
:1033700000F8FF0FFF33E10764400E400A684B6816
:1033800042EA83028B6842EA8312CB6842EA031264
:103390000B6942EAC3220B7D896942EA033242EAA1
:1033A0004141104A0001115070470178427841EACA
:1033B0008201827841EA0211C27841EA42114268F0
:1033C00041EA0221826841EA0231027B41EAC231CC
:1033D0000269007D41EA024141EA40400249086039
:1033E000704700004020044000200440002806D51B
:1033F0005C4900F00F00084410F8040C01E05A4941
:10340000085C4009704738B504460D4600F0B2FE2E
:103410005649D1E90023C4E90023D5E90023C1E9D5
:103420000023BDE8324000F0A9BE10B5044600F00C
:10343000A1FED4E900234D4906E010B5044600F092
:1034400099FED4E900234A49C1E90023BDE81040B0
:1034500000F094BEF8B5074600F08CFE444ED6E965
:10346000004500F08BFE38687968044001EA0502E7
:1034700020EA040421EA0200210008BF00280546D2
:1034800004D0C6E900453948C0E90045F1BD10B592
:1034900000F00AF8184304E010B500F005F823EA3C
:1034A000000041F8220010BD421151F822300124E1
:1034B00000F01F0004FA00F0704710B5044600F059
:1034C00059FE2B49D1E90023C4E90023BEE770B5BA
:1034D000064600F04FFE2649D1E9004500F04EFEB9
:1034E0003068204205D170682840401E8041C00FDE
:1034F00070BD002070BD1E49421151F8221000F02D
:103500001F00C14001F0010080F00100704719491F
:10351000096801EB8000006C7047164A126802EBE4
:10352000800001647047F0B5059D069C002603E00D
:103530000FB942F82650761C9E420FD2270002D0C7
:103540008E42F6D205E052F826708E42F0D2002F5D
:10355000F1D150F8267042F82670ECE70548026079
:10356000F0BD000018ED00E000E400E080E100E0C4
:1035700000E100E008ED00E072B6704780B500F0B1
:103580000CF82749274A0968C1F30821491CB0FBF8
:10359000F1F0106002BD244870472448016801F032
:1035A0000701022909D00AD3042901D002D306E079
:1035B0001F4905E04FF4004103E01E4900E01E49A9
:1035C0000968C06EC0F30420401CB1FBF0F07047E6
:1035D000184800687047174908601448006800F0F0
:1035E0000700022808BFFFF7C9BF704713480168EA
:1035F00041F47001016070474FF4004070474FF490
:103600007A7070470A48006870470949086007489F
:10361000006800F00700042808BFFFF7AFBF70473D
:1036200008410E402C00002000F0490294400E405A
:1036300028000020240000203000002088ED00E059
:10364000890001EB401000F184400260704789005E
:1036500001EB401000F18440006870472DE9F84309
:10366000DFF8584ADFF8586ADFF8585ADFF8588A06
:10367000DFF8587A80B9206B38601120FFF706FB1D
:10368000C8F8000000F044F80028FBD12868000CBE
:1036900000F00300307039E0012837D13178102074
:1036A000C1F102018840DFF8286AE86045F60E00A3
:1036B000D6F80090306000203968CA0748BF012062
:1036C000CA0648BF40F010004A0648BF40F040001C
:1036D0004A0748BF40F00400C90548BF40F4807065
:1036E000206000F015F80028FBD1D8F8001005295B
:1036F0001CBF1120FFF720FB3878C0075CBF0220F9
:1037000020605FEAC97044BF00203060BDE8F183EB
:10371000122128469BE738B5DFF8B80901684068F0
:10372000C1F30124C0F301451221DFF89809FFF726
:103730008EFF0028F8D1A54217D2022C15D11120F6
:10374000FFF77DF904461120FFF7B7F96043DFF872
:103750008819884224BFDFF88409FFF7EDFBBDE834
:10376000344005211120FFF7E7BA31BD10B5040040
:103770001CBF0020FFF772FFFFF7CDFF00F01FF81E
:1037800004B124E027E010B504001CBF0020FFF7BF
:1037900065FFFFF7C0FFDFF83809DFF8203901685F
:1037A00045F60E020260C9074FF420721A6044BF4A
:1037B0000021016000F003F804B108E00BE0DFF83D
:1037C0002009016841F00401016030BF7047012009
:1037D000BDE8104042E7BDE81040FFF7CFBE90E0E3
:1037E00001203BE770B5DFF8FC48206920F4403049
:1037F00040F40035206940F440364AF6E850206035
:103800002069C00708D4A06B00F00300012812BF94
:103810000228002000F055F904202561401E266191
:10382000FBD1256170BD80B5012201E080B5002289
:103830000021DFF8B408FFF703FFBDE80140D1E73E
:10384000DFF8A8186FF31D100860704770B50024EA
:10385000DFF89C38DFF89C2809B9114601E099424D
:103860001BD3DFF89458A84202D20124012504E0BA
:10387000DFF88858A842AD41ED0F44EA4504DFF86F
:103880008058A842AD41ED0F44EA8504DFF8745832
:10389000A842AD41ED0F44EAC504DFF850582E6848
:1038A00034432C60002491420BD3002503EB0546E2
:1038B0008642B641F643F60FAE4034436D1C022DEE
:1038C000F4DBDFF844381D682C431C600024DFF86B
:1038D0003C58A9420BD3002102EBC1258542AD41E2
:1038E000ED43ED0F8D402C43491C0129F4DB586852
:1038F0002043586070BDDFF8181880B20860704728
:1039000000BF0020AAE638B50C46DFF808180D689D
:1039100028B9FFF742FEC5F30421491C4843DFF8EC
:10392000F817097831B1DFF8F417884202D221463E
:10393000022001E021460020BDE83440F8B50446ED
:10394000DFF8D007DFF87C7700680D46FFF725FE2B
:10395000064600F01DF80028FBD13868C0F301408E
:10396000A04214D0022C03D102213046FFF718F8F0
:103970001020C4F102018840F8601CB900213046D3
:10398000FFF70EF81DB100F003F80028FBD1F1BDE0
:10399000122138465BE60078DFF87C1708700121B9
:1039A0000020B0E70278DFF82C17002A0A6812BF5F
:1039B00042F00102520852000A600A68406822F48C
:1039C000407242EA00200860704770B5DFF80417C3
:1039D0008A690378920903B10423447804B102246C
:1039E000857805B10825466806B1012643EA8212AA
:1039F00022432A43836832431A438A610A68C068B3
:103A000022F4403242EA0040086070BDDFF810073F
:103A1000006803291AD8DFE801F00205080B00F05E
:103A2000FF0006E0C0F3072003E0C0F3074000E01A
:103A3000000E00032AB930F4704107D1DFF8E41614
:103A400008E0012A0BD130F4704101D0002070470A
:103A5000DFF8D4160A6822F470421043086001208F
:103A6000704770B50025002452EA0322DFF8BC66D7
:103A700016D0521E0CD0FF3A14D0521E0AD0FF3A74
:103A800012D0521E08D0FF3A14D0521E06D015E0B4
:103A9000B2680AE0B2680EE0F26806E0F2680AE096
:103AA000326802E0326806E07268C2F3072402F06E
:103AB000FF0503E07268140EC2F3074505600C6051
:103AC00070BDF8B50446DFF86856686AC007FCD4D4
:103AD000DFF86066F06910F0030704D001220D21C1
:103AE0002846FFF7ADFDA74202D12CBB00221EE005
:103AF000032F18BF002F0FD1022C18BF012C0BD1A0
:103B00004FF40020B06000F018F8800040F0010091
:103B1000F06130680003FCD500F00FF844EA800043
:103B2000F061686AC007FCD4220018BF0122284651
:103B3000BDE8F8400D2183E5F1BD686AC007FCD4FB
:103B4000F06980087047F8B5DFF8E8650446F06969
:103B500000F00307F06C4FF48010B0600D460020B9
:103B6000FFF7AFFF706DC007FCD43068C002FCD512
:103B7000012CB06A05D140084000B06245B1002078
:103B800004E040F00100B06215B1042000F091F9AA
:103B90003846FFF796FFBDE8F240DFF89C05008845
:103BA0001BE1F8B50446DFF8945502202860286828
:103BB00000F00F00022850D1A0894B28B8BF002088
:103BC0000DDBB0F5FA7FB8BF4FF0805007DB40F651
:103BD000C4118842B4BF4FF000504FF04050DFF89E
:103BE0006065DFF860353169B4F91420DFF8587585
:103BF0001940D243084340EAD2703061DFF828050B
:103C0000016841F4407101600021386A40F0807021
:103C10003862FFF7BEFE00B1042000F04AF9E089E7
:103C2000DFF828150880A08ADFF82415088060894D
:103C3000DFF80415088000F0D0F8A06920B1012851
:103C400005D1DFF8100501E0DFF80C05F8602089E8
:103C50000122012100F013F808B90020F2BD6868C4
:103C600040F4806068606068FFF72BFF226902B152
:103C7000012205213046FFF7E3FC0120F2BD2DE9CA
:103C8000F04F89B004468846934605A800210022DB
:103C900000230EC002A80EC0A4F5E160B0F5966F37
:103CA00000F28880B4F5E16FDFF8B0044FF4966A53
:103CB00002AF05AD0BD94FF4E16101914FF001095D
:103CC0000068A860010EB960C0F307400BE08946A8
:103CD000CDF804A04FF4167A0068A860C0F307215D
:103CE000B96000F0FF00A8604A46DFF85C64306805
:103CF000000F00F003008DF80100034602A905A89B
:103D0000FFF7AFFEDFF820040068000A00F00300B0
:103D10008DF8000003464A4603A906A8FFF7A1FE56
:103D2000019AA868B9686D68D7F804E0DDF814C096
:103D3000A31A0A1AAEEB05075A43029CB2FBFAF229
:103D40008218A4EB0C045C437B43B3FBFAF3EF183B
:103D50009142B4FBFAF428BF824264442AD3BE45A0
:103D600028BFAF4226D30298A04224BF05988442C0
:103D700020D3BBF1000F0CD030694946B9F1000FD8
:103D800018BF0221DFF8D833184040EA0220084368
:103D90003061B8F1000F1CD09DF801100022484698
:103DA000FFF734FE30B19DF8001001224846FFF7BE
:103DB0002DFE08B900200DE0A74228BF3C46E72CA5
:103DC000B06928BFE724400A49EA440141EA40209B
:103DD000B061012009B0BDE8F08F10B5DFF86813BD
:103DE0004B6A0C68E4074FF0FF3203F0070327D556
:103DF000022B25D314282AD31438142834D30F22A5
:103E0000086820F47F4040EA022040EA0230CF4AAE
:103E100008600868128802F12803C0F3032003EB4E
:103E2000D373401C02EB6302283200EB8003B2FB29
:103E3000F3F2521E072A34BF12064FF0E06215E07B
:103E40000C68E40709D4022B07D20A2801D2032206
:103E5000D6E70A380A2807D3D1E70C68E407CFD59C
:103E6000022BCDD22828CAD20722C9E70B6823F03B
:103E7000EE631A4342F480120A60B54AB2F9002098
:103E8000002A15D492B202F1280303EBD37302EB9C
:103E900063024308283203EB4000B2FBF0F04A68AB
:103EA000072834BF0001702022F0700210434860E0
:103EB00010BD38B50446A44D0021FFF72AFC686AFE
:103EC000C00844EAC0006862BDE832409A480088F1
:103ED00083E79A4802210160416841F480614160B2
:103EE000016CC907FCD4032181608068032801D1DB
:103EF0000120704700207047024608460A21032A25
:103F0000984B00D9704710B5DFE802F002131E206D
:103F10001B68C3F3031203F00F0411FB0242C3F347
:103F20000334C3F3032311FB0431891A01290FDA87
:103F300010BD1B68C3F30352C3F3034411FB0242D9
:103F40001C0FC3F30363EEE75B68E2E75B68F1E72E
:103F5000854B93FBF1F164234A4303FB002000EB04
:103F60005100824A1018B0FBF1F010BDF8B500F016
:103F700075F80A21B0FBF1F201FB1206102A27683E
:103F80007B4824BF0F22092633021503032F43EA7F
:103F9000050113D8DFE807F002131A21217A01B1D5
:103FA0000421677A07B10827360446EA02522A43F9
:103FB0001A431143A27A394311430160F1BD227AB9
:103FC00002B1042200F019F84160F1BD227A02B179
:103FD000042200F012F88160F1BDE27A02B11022F1
:103FE000237A03B10423657A05B1082511431943E7
:103FF000A27A29431143C160F1BD637A03B108235A
:104000001143A27A194311437047F8B500F026F81E
:104010000546A1682068FFF76FFF2168E9B9217B99
:1040200001B10421627B02B108220A26B5FBF6F633
:104030000A2707FB16550A232D04B0FBF3F345EAC4
:10404000065545EA033507FB130045EA00200843FF
:10405000A17B1043084346490860F1BD04466168EE
:10406000206849E70328424B08D8DFE800F002083F
:104070000A0C0A4600211846FFF7E2BA70471B1DDA
:10408000F7E70833F5E70C33F3E7000080B50328C2
:104090000BD8DFE800F002040608012106E0022147
:1040A00004E0032102E0042100E000210548FFF7BD
:1040B000CEFA00B10120C0B202BD000060400E4047
:1040C0003C13002004300E40800700207C070020B5
:1040D00080410E4000300E40012D3101C0EA210127
:1040E00010ED00E008300E4018300E400C300E404D
:1040F0000000022000000420014000200180002078
:1041000001C0002001000120B4300E40000804204E
:1041100008310E4000410E4078070020002D31018B
:104120003083E00F6C300E40EC300E401C83E00F0B
:1041300054300E4024300E402413002038300E40FE
:104140003C300E40FEFFFFCF4C300E4022130020CB
:1041500026130020372110B7774020571883E00F2F
:10416000FD80FFFFF082E00F80B501007029FDFFA8
:1041700090300E40EFF3108072B6704700B962B60F
:104180007047002ADFF800F0BF020020DFF800F0DF
:104190003103002010B582B00446FFF7F3FF002082
:1041A00000F056F9201DFFF7F1FF00F050F904F17F
:1041B0000800FFF7EBFF221D082100F09FF900F037
:1041C0004BF9002016BDC0F30A010831B1F5006FAC
:1041D00004D280884FF6FF71884201D101207047D8
:1041E0000020704710B500F059FADFF88404DFF8BA
:1041F0008444016809048909A1F5805121600821DE
:10420000006800048009A0F5006060602068021D5D
:1042100000F074F92168096888421CBF2068FFF724
:10422000B9FF6068021D082100F068F9616809683B
:1042300088421CBF6068FFF7ADFF20684068616876
:10424000496888428041DFF83014C00F0870BDE82B
:10425000104000F02FBA2DE9F04104464FF6FF75EB
:10426000AC4214BF002840F2122084B00E4633D076
:1042700000F0E8F850F8218000F010FA08F10C077F
:104280003846FFF7A0FF20BBB888304006EA04019B
:10429000884211D1D7E90001CDE90001ADF80650FF
:1042A0000422BDF804006840ADF8040002A901989A
:1042B0000290381DFFF76AFFB87900F0DFF907EBCD
:1042C000800000F10807F80A08F10C0100F00EF96F
:1042D000D6D000F0EFF9002004B0BDE8F0812DE960
:1042E000F84F80464FF6FF70804514BF5FEA080024
:1042F0004FF4C07084B00D4693461F465CD000F06A
:10430000A1F850F8219000F0C9F909F10C04002639
:1043100009F10C0A2046FFF756FF002832D100F0C1
:10432000EAF82168884204BFA088404521D1A079DD
:10433000834509D104985A4604F1080100F0C6F9F2
:1043400010B900F0B7F970E0D4E90001CDE901013E
:104350000422BDF808004FF6FF714840ADF8080090
:10436000ADF80A10694602980090201DFFF70EFF75
:10437000064600F0FEF800F05FF808BF002EC9D036
:10438000002E4FD15FEA0B004CD004EB0B0008303D
:10439000C00A00F051F810D000F012F90446C4F33E
:1043A0000A00002804D058440830B0F5006F04D942
:1043B00000F080F940F201503BE04BEA0520ADF8F7
:1043C0000A00ADF80880251D0298009026460422B8
:1043D00069462846FFF7DAFE2C1D00250EE03878E6
:1043E000797840EA0120B97840EA0140F97840EA5A
:1043F000016000F031F83F1D241D6D1C38B90BF130
:104400000300411000EB9170B5EBA00FE7DB321D0C
:104410000BF1040100F072F800F01AF83046FFF7D3
:10442000B5FE064600F046F90EB9002001E04FF453
:10443000C67005B0BDE8F08FC0024FEADA21B0EBDC
:10444000C12F70478C498B4891F9001070470120AB
:104450000090042269467047009004226946204675
:10446000FFF794BE2DE9F0470C46834991F90010FF
:104470000746804850F821A0154699460AF10C08D5
:1044800046463046FFF79FFEA0B9B079011D321DA8
:1044900000F034F83168814218BF7F1CF088FF219A
:1044A00090FBF1F1C1EB0121401A00F0EDF800F0B2
:1044B00019F802D040F2025012E03846471EC0B24E
:1044C0000028DDD1B088208015B1F088000A28705E
:1044D000F08889F8000006F10800089908600020BB
:1044E000BDE8F0874FEAD8200AF10C01C002C90AE2
:1044F000B0EBC12F7047A079011D221D4FF0FF3096
:1045000000F016B92DE9F8430D465B4991F900100A
:104510008146584850F8218016461F4608F10C0481
:104520002046FFF750FED8B9FFF7E5FF2168884223
:1045300004BFA08848450CD194B115B1E088000AA9
:104540002870E088307004F1080038600020BDE871
:10455000F28300F00EF808F10C01FFF7C7FFDFD07F
:104560000DB10020287000203070386040F20250F9
:10457000EDE7A079C01C411000EB9170801004EBB6
:10458000800000F10804E00A70471CB514466B4631
:1045900001AAFFF7B7FF10B99DF8040010B940F267
:1045A000025016BD0098007820809DF80410022962
:1045B00004DB0099497840EA01202080002016BDE4
:1045C0002DE9F0472C4C2B4994F9000082B051F8AA
:1045D00020A080F0010051F820502846FFF7D2FDBE
:1045E0000AF10C0805F10C0902E0B07900F04CF872
:1045F000FFF778FF1ED146463046FFF7E4FDC8B905
:10460000B079011D321DFFF779FF31688842ECD186
:104610000027B07900F032F8801C8742E8DA58F8B9
:10462000040BFFF715FF4846FFF7B0FD09F1040939
:104630007F1CEEE7DAF80400401CFFF709FF281D95
:10464000FFF7A4FDFFF703FF05F10800FFF79EFD4C
:104650002A1D0821FFF752FFFFF7FAFE2846FFF751
:1046600095FD207880F0010020704846BDE8F6876F
:10467000F881E00F5805002054030020C01C4110B1
:1046800000EB917080107047C01C411000EB9170DE
:10469000801008EB800000F10808704709480168A5
:1046A0000068094841F67131816301684908490091
:1046B0000160704704480168490849000160002111
:1046C0008163704704300E4008000E400300002054
:1046D00013F0030F09D0521E22BF13F8010B11F87B
:1046E00001CBB0EB0C00F3D07047121F22BF53F880
:1046F000040B51F804CB6045F7D0121D0AD200BA62
:104700009CFA8CFCB0EB0C0038BF6FF0000088BF47
:1047100001207047521E22BF13F8010B11F801CB84
:10472000B0EB0C00F6D0521C08BF104670470328AF
:1047300010B50A4B40F201141C60986001205860CB
:1047400002E012F8010B98610846411E0028F8D1DA
:10475000D8694FF0FF31484010BD00BF00C0014094
:10476000DFF8C0030078012818BF00207047DFF889
:10477000B81308607047DFF8AC2353780380907853
:104780000880704710B5DFF89C331C7804431C7018
:10479000012804BF59709A7010BD38B504460D4603
:1047A0002278611C284600F0EDF92078286131BD9F
:1047B0002DE9F04385B00646894617461C4600F0B1
:1047C000E7F9FF1EDFF86483D94D38D07F1E53D040
:1047D000FF1F00F00A81FC3F00F09B807F1E00F06D
:1047E000F6807F1E00F0CF80F83F49D0BF1E53D027
:1047F000FF1E6BD07F1E00F0E080FB3F14D040F224
:10480000FF403F1A00F025817F1E00F001817F1ECE
:1048100000F008817F1E00F00F817F1E00F01081E4
:10482000BF1E00F023812DE1BF4805682800FAD0A3
:10483000234640F2023249463046A84722E10C2284
:10484000002101A800F0B1FA01A800F0B9FA022095
:10485000A88000230620E880002200202881294625
:1048600040F6A92068810298E86001202882B148BA
:1048700000F00CF9122003E12068A880AE48FAE0AD
:104880002068007B8007D9D56068A8800023206855
:10489000C07F00F008F9E7E02068C07F00F0ACFBC3
:1048A000060012D0307B80060FD46068A8800023F9
:1048B000F07F00F0F8F8072000F0A4FC304600F08C
:1048C000F3FCF06840F02000F060DBE0FFF748FF09
:1048D00020B9206890F83D10FF290AD1206800F027
:1048E000F5F800F0D7F818BF002000F0E4F893487E
:1048F0005FE000F0EBF800F0CDF818BF002000F00A
:10490000DAF8206890F83D00A8738D4800F0BEF8F2
:1049100037E08C4800780028D7D16078FF2813D181
:10492000A07828710622E11C681D00F02BF9607A3E
:10493000E8720023A07A2873002283482860294661
:10494000012000900D209BE02078287106226078DD
:104950006871E11CA81D00F015F9607A287304F154
:104960000C03A07A6873E07AA8730B30010241EA65
:10497000102040F4403040F0A00000F087F82946B5
:10498000AA7B0F207CE000F0ABF800287AD000F082
:10499000A3F86088A5F805000022A088A5F8070004
:1049A0002946E088A5F80900207AE8726089A88184
:1049B000664800F06BF80E2062E000F091F80028E5
:1049C00060D02078287160786871614853E0FFF703
:1049D000C7FE30B15F482860002300F067F804206C
:1049E0004EE000F079F85C481FE000F079F800280C
:1049F0001CBFC17D102945D0C07F2871002360787D
:104A000068710022A078A87129465448286029E0DE
:104A100000F066F8002835D0207828716078687139
:104A20004F4828E000F058F84E4828600022012046
:104A300000902946052023E000F055F84A4802E09E
:104A400000F051F8494828602946012000900920CB
:104A500016E000F041F86068A5F80500002244481F
:104A60002860294601200090072009E0207828715D
:104A7000606868713F482860002300F017F806203E
:104A800000F0C0FB002005B0BDE8F08328600120E5
:104A9000009070472068C07DA8722946206890F871
:104AA0002E0001287047A871C5F8008001200090F1
:104AB000002229467047E87200232068C07F2873CF
:104AC0000022206890F83C006873704700F11101E3
:104AD0000622281D00F056B8207828710023704760
:104AE000207800F089BA2078287100236068C5F822
:104AF000050000227047032200210A4800F055B942
:104B000038B5044640F22D152846A0471A490860DA
:104B10002846A047194908602846A0471849086058
:104B200031BD00009C050020A0050020A003080165
:104B30006C050020A00E0100A0020105A00A0800DB
:104B4000A00B080536130020A0090302A00A0802E2
:104B5000A0020804A0000301A0010303A0030803AE
:104B6000A0020F03A0010F01A0050F00A0050F0276
:104B7000A0030F04A0020F096005002064050020B7
:104B80006805002010B5044600F0ACFB204610BDBF
:104B900038B540F20161521A1C465D485D4D1AD08D
:104BA000521E1CD0521E29D0521E47D0521E3BD03E
:104BB000521E56D0521E66D0521E68D0F93A6DD0A1
:104BC000521E74D0521E76D0521E00F08880521EA3
:104BD00000F08D8099E000F0C2F84F488DE0207819
:104BE000287104F108036068C5F80500A06900F0A9
:104BF000BCF84A4908432860294674E020782871A7
:104C000004F108036088A5F805002079E871A0691F
:104C10002872287A2A7A401D010241EA1020404970
:104C200000F08EF809206EE000F0B3F8A872A87AC0
:104C3000C01D010241EA10203A4941E02078287164
:104C4000231D6088A5F805006069E871E879EA79B4
:104C5000001D010241EA1020334900F071F80820DC
:104C600051E000F07CF8A088A5F80700A06800F0EB
:104C70002FFE00F07AF82D490843286029460220CB
:104C800000900A2023E021782971616803E02178EF
:104C9000297140F20311A5F805102EE000F079F813
:104CA00000F054F840F4202040F0A00009E000F0AB
:104CB00064F81F4816E000F06CF800F047F81D4952
:104CC0000843AA7A28602946022000900B20A36896
:104CD00000F098FA04F1080000F031FD15E000F052
:104CE0004CF815482860012000900A200BE020783D
:104CF00028716068A5F8050010482860002301208D
:104D000000902946072000F07DFA002032BD000007
:104D1000A00309066C050020A0030900A0000901FA
:104D2000A0000902A0000904A0000903A0000905D1
:104D3000A0060A01A0000A02A0060A03A0030A04B2
:104D4000084328602946012000907047A872A87A7D
:104D5000C01D010201F47F4141EA10207047207814
:104D600028716088A5F8050070476872687A6A7AC9
:104D7000801D010241EA102070472078287100232D
:104D80006088A5F8050029462079E871E088288127
:104D90007047207828716088A5F805002079E871AF
:104DA000E0882881A06800F093BD10B50446104645
:104DB0000A460146204600F0F5FE204610BDFEE7FB
:104DC00010B53749374B0A689B18B3F5104F09D215
:104DD0001368354CA34205D19268426001230968EB
:104DE000896901E0002300218160036010BD2C4827
:104DF0002C4900680918B1F5104F3CBFC069004745
:104E000008E02748274900680918B1F5104F3CBF52
:104E1000006A00474FF48170704724480121816087
:104E200040F202224FF000510A804FF20F024A80F6
:104E3000016821F4E06141F480610160BFF34F8FAC
:104E40001B481C4A016801F4E06111430160BFF393
:104E50004F8F00BFFDE7124A124B12689B18B3F543
:104E6000104F3CBF926A104740F20220704738B59D
:104E70000B4C0C4D24682D19B5F5104F02D340F2A0
:104E8000022032BDE46AA04732BD0549054A0968DF
:104E90005218B2F5104F3CBF496A084700207047CE
:104EA0002808E10F00F81EF007B0CD5E00500E405C
:104EB0000CED00E00400FA052DE9F04105460E4630
:104EC00090461F46022000F0D3FE04002DD0502152
:104ED00000F0FAFEA6770622294604F1180000F039
:104EE00001FAE7750622414604F1110000F0FAF9D3
:104EF00004F13C004FF0FF310170FF2141700020B0
:104F00005D49401C0A68C0B203E0D37F9842F8D0E4
:104F10009268002AF9D1E07740F6FF702084086893
:104F2000A0600C60204600F0A9F82046BDE8F081A2
:104F300000B10184704710B504003AD094F9040020
:104F40000128A4BF401E207194F90400012809D152
:104F5000207B800706D5207C01001EBF012820464B
:104F600001F0CFF994F90400012822DA204601F07B
:104F7000B6F904F1240000F0E2FB3F49086858B19B
:104F8000844203D1A068086006E00846816819B130
:104F9000A142FAD1A168816000220FF219012046D6
:104FA00001F048FD2046BDE810400022012101F03B
:104FB0003BBD10BD10B5012A0C4602D0022A07D015
:104FC00004E000220221204601F02EFD002010BD49
:104FD000204601F05EFD2146022000F05AFE01202D
:104FE00010BD2549096800E0896800291CBF0A8CAA
:104FF0008242F9D1084670471F49096800E0896874
:1050000000291CBFCA7F8242F9D10846704770B59B
:105010000446194806680D4600E0B66856B1F07DB2
:10502000A842FAD10622214606F11100FFF74EFBF5
:105030000028F2D1304670BD38B504460E480568E8
:1050400000E0AD685DB1287C0428FAD13CB10322B0
:10505000214605F11400FFF739FB0028F1D128465D
:1050600032BD10B904480068704780687047024933
:105070000020086070470000F806002010B1017998
:10508000491C01717047024600235021022000F0A4
:10509000BDBD022000F0F7BD57490A68100003D0DB
:1050A00012680A6001F083BD70475348006800B180
:1050B000001D70472DE9FC410F4606463878000672
:1050C000144698460FD5A019001D01F05EFD4A4D0B
:1050D00030B30021016000E00D4629680029FBD1B2
:1050E0002860051D01E045480568324639462846D6
:1050F000FFF748FDA4B10898AD19022808D122464F
:105100004146284602B0BDE8F041002300F070BAE5
:1051100022464146284602B0BDE8F041FFF732BDC5
:10512000BDE8F381E0B58278C078ADF808100006DC
:1051300040EA024040F408700190002301200090F2
:10514000002201A90620FFF7B5FF07BDF1B582B027
:105150000C46012000F097FD0B2838BF4FF4C171B9
:105160002AD32748006800210CE00832566846B16F
:10517000167806F0F806BE4204BFD678AE42F4D1E7
:105180001146806888B181B94268029B0093002A69
:105190009DF800309DF80350F3D096789DF802708A
:1051A000BE42EED103F0F807E0E719B149682046A6
:1051B0008847F7BD40F2831102A8FFF7B3FFF7BDA0
:1051C000C4E770B50E4E044630680D4600E08068B6
:1051D00018B14168A942FAD10BE00C2001F0E4FCBF
:1051E00010B94FF4C17070BD0470456031688160C2
:1051F0003060002070BD0000A4060020640500207F
:10520000A806002010B582B0049C0094FFF752FF5E
:1052100013BDFEE780B51A490020086001F0C9FC03
:10522000FFF725FF00F068FD00F098F801F0C2FCE0
:1052300001F05FFE02F05AFD02F0D6FEBDE801402B
:1052400001F04BB838B504460D4600230122002179
:10525000002000F0DBFC2046FFF715FF284601F098
:1052600039FE002032BD1CB50446062205496846B9
:1052700000F048F820466946062200F033F813BDD6
:1052800064070020180B002010B5044603E001F06D
:105290002FFC01F020F800F09DFF00282046F6D1F9
:1052A000BDE8104001F024BC002818BF02F051BB3B
:1052B0004FF4C070704780B5FFF79EFE20B1008CA0
:1052C000BDE8024001F096BA4FF4C07002BD01B5CE
:1052D0006A460121012001F0BCFA002002BD01F064
:1052E000B8BAFEE762B38B0708D0521E11F8013B33
:1052F00000F8013B00F024808B07F6D1830740F0D3
:10530000208000BF103A07D330B4B1E83810103A0B
:10531000A0E83810F9D230BC530724BFB1E8081018
:10532000A0E8081044BF51F8043B40F8043BD20702
:1053300024BF31F8022B20F8022B44BF0B780370F6
:105340007047083A07D3B1E80810083A40F8043B20
:1053500040F804CBF7D25307E4E7FEE780B501201D
:1053600000F0A1FCDFF82418801F08600020DFF89F
:1053700020180870DFF81C18086001BD2DE9F047FF
:1053800005468946924602F04AFF8046DFF8FC0750
:10539000DFF804480068DFF80468012D22D1316885
:1053A000814224DA012000F063FC07002FD0102195
:1053B00000F08AFCB86840F00800B86087F80990EF
:1053C0000AEB0900B872002038607D60B8684008B8
:1053D0004000B8600020012DF8600DD13068401CFD
:1053E000306018E0002DDDD121688142DADB4046D3
:1053F00002F019FF002012E01DB92068401C206057
:1054000009E0DFF89C070168491C016003E0DFF850
:10541000801701200870404602F005FF3846BDE8BD
:10542000F08700220021A9E78B18462BBCBFC9B228
:10543000FFF7A4BF0020704738B514461D46002270
:10544000C9B2FFF79BFF009040B12A46214600F009
:1054500054FAA8423CBF684600F071F9009832BD8A
:10546000F8B5044600200D46009000261CE0607A46
:105470007872A07AB872A068B968400860F34101F8
:10548000B960A068B968800860F38201B96000F073
:105490003FF8787A384400F0A8F8009800B90097EF
:1054A00006B1376024683E465CB1002200212846E0
:1054B000FFF764FF0700DAD1684600F040F90020EA
:1054C000F2BD0098F2BD38B504460846002200211E
:1054D000FFF754FF050001D1002032BD607A6872E9
:1054E000A07AA872A068A968400860F34101A96089
:1054F000A068A968800860F38201A96000F008F83C
:10550000687A284400F071F800202860284632BDEF
:10551000607AA17A0A1A204400F11001704738B568
:10552000050031D002F07BFE0446A868696820F0CF
:1055300008000129A86008BFDFF8601605D000291F
:105540000CBFDFF85416DFF858160A68521E0A60BE
:10555000C00729464CBF0320012000F09AFBDFF86A
:105560003006017859B100210170DFF8280605687E
:1055700003E06968284688472D68002DF9D1204648
:10558000BDE8324002F04FBE31BD10B508E0427AAE
:10559000837AC9B29C1A8C4205DAC91A006851187C
:1055A0000028F4D110BD10440844103010BD827A98
:1055B000C2F145039942A8BFC2F145018A1882721F
:1055C000C8B2704738B504461546A07AC0F1450206
:1055D000954288BF154620442A4600F006F8A07A76
:1055E0002818A072284632BD32461030FFF77ABE26
:1055F0002DE9F0425FEA000918BF00290BD00C46E4
:10560000607AA17ADBB20F1A9F4206DA591A24682F
:105610004318002CF4D1002021E0A67A2118301A7A
:105620001944C51A1031EDB24E4609EB020705E0E8
:10563000607AA27A2118151A1031EDB2BE420CD24E
:10564000701987423CBFBD1BEDB22A463046FFF7BA
:1056500049FE24687619002CEAD1A6EB0900BDE8C2
:10566000F082F8B504460D46164600F031F9B04216
:1056700005D24FF0FF30F2BD24683D44F61B7CB1EB
:1056800076B1607AA17A0F1AB74288BF37462044B4
:105690003A4629461030FFF719F80028ECD0F2BD41
:1056A0000020F2BD2DE9F84F06460D46924600F067
:1056B0000FF90446284600F00BF95445A8BF5045A1
:1056C00007DA844204D0ACBF01204FF0FF3034E051
:1056D000A2460024A1460027A04609E0A4EB0B0443
:1056E000A7EB0B07D944D844AAEB0B0AE4B2FFB2EC
:1056F0005FFA8AF008B33CB9707AB17A0C1A304478
:105700003668E4B200F110093FB9687AA97A0F1A35
:1057100028182D68FFB200F11008A346BC42C8BF8C
:10572000BB465FFA8AFADA4538BFD3465A46414645
:105730004846FEF7CBFF0028D0D0BDE8F28F38B541
:10574000044603E00568FFF7EAFE256020680028AC
:10575000F8D131BD00B9704710B5016821B90022F8
:105760000260084610BD026003681A68002AF6D07D
:105770009468C4F34004002CF5D000241C60EFE7CB
:1057800038B50446607A884202D3401A607213E04A
:10579000A27AC2F14503C3188B420FDB121A0D1A0D
:1057A0002318581903F11001103002F03FFD0020BA
:1057B0006072A07A2818A072012032BD002032BD8C
:1057C00038B504460D46FFF7DBFF08B1204632BD71
:1057D0006068FFF726FE28B1046045218172C5F19B
:1057E0004501417232BDF8B504460D46607AA17A92
:1057F0000A1A081A561B8542B6B204DA6068FFF727
:1058000010FE070001D10020F2BD607A2044284438
:1058100000F11001787A3844FFF7E6FEB87A3018C4
:10582000B872A07A801BA0722068386027600120BF
:10583000F2BD10B50C46002818BF002C07D0617AC5
:10584000A27A837A521AC3F14503934201DA002007
:1058500010BD21441031FFF7B5FE2046FFF75FFE73
:10586000012010BDF8B504460F46266800203546D5
:1058700005E0B07A717A381A0F1830463668F9B2F6
:1058800069B166B1B07A717AFFB2401A8742F0DA34
:1058900039463046FFF7A7FF0028EAD1F2BD08B12C
:1058A0000021016026602846F2BD016821B10A6826
:1058B00002600020086001E0002202600846704794
:1058C000016819B10A680260084628E6016070475D
:1058D000002104E0827A8918427A0068891A002837
:1058E000F8D108467047026812B901607047024655
:1058F00010680028FBD1116070472DE9F8430400BF
:105900000D4618BF002D164600D00EB9002022E02B
:10591000A14600E08146D9F800000028FAD15FEAEC
:105920000908374605D1617A60680022FFF726FD35
:105930008046B8F1000F0DD03A4629464046FFF7A1
:1059400041FE3F1AC8451CBFC9F80080C146002F60
:105950000544E8D1F01BBDE8F28338B505680C4674
:1059600015B9046031BD054628680028FBD12068C0
:1059700018B1204600F054F803E02846FFF759FF1D
:1059800000B92C6031BD026802B10A600160704745
:105990000A0001D170471A461368002BFBD1036837
:1059A00013600160704738B504460D4604E06D1A77
:1059B00001682160FFF7B3FDE8B250B1206840B143
:1059C000427A817A891A89B2EDB28D42EFDAA9184A
:1059D000417231BD70B504460D46206810B970BDE6
:1059E00000203060E8B2D0B12068002817D000262F
:1059F00001E00646084601680029FAD1417A827A18
:105A0000EDB2531A9D4202DA511B817270BDAA1A7F
:105A10008D18FFF784FD002EE2D10020206070BDBC
:105A200070B5044643E0A17A607AC1F145021518C9
:105A3000ADB2002D3AD002000DD00A1A204400F178
:105A4000100104F1100002F0F1FBA07A617A401A13
:105A5000A07200206072206840B38168C1F34001E9
:105A600021BB417A827AA37A0844521A00F11001CC
:105A7000607A92B22E4695422044C8BF164618441A
:105A8000FFF7B2FDA07A3018A072AD1B2068417AF2
:105A900071184172ADB22068817A427A891A03D1B5
:105AA00001682160FFF73BFD002DD4D12468002C54
:105AB000B9D170BD2DE9FB4781B000250198009553
:105AC0000028904647D00646A946AA46002423E06F
:105AD000B9F1000FFFB20DD101989DF80810406890
